{
  "_format": "hh-sol-artifact-1",
  "contractName": "WavePortal",
  "sourceName": "contracts/WavePortal.sol",
  "abi": [
    {
      "inputs": [],
      "stateMutability": "nonpayable",
      "type": "constructor"
    },
    {
      "anonymous": false,
      "inputs": [
        {
          "indexed": true,
          "internalType": "address",
          "name": "from",
          "type": "address"
        },
        {
          "indexed": false,
          "internalType": "uint256",
          "name": "timestamp",
          "type": "uint256"
        },
        {
          "indexed": false,
          "internalType": "string",
          "name": "message",
          "type": "string"
        }
      ],
      "name": "NewWave",
      "type": "event"
    },
    {
      "inputs": [
        {
          "internalType": "uint256",
          "name": "",
          "type": "uint256"
        }
      ],
      "name": "arrayOfAddresses",
      "outputs": [
        {
          "internalType": "address",
          "name": "",
          "type": "address"
        }
      ],
      "stateMutability": "view",
      "type": "function"
    },
    {
      "inputs": [],
      "name": "getTotalWaves",
      "outputs": [
        {
          "internalType": "uint256",
          "name": "",
          "type": "uint256"
        }
      ],
      "stateMutability": "view",
      "type": "function"
    },
    {
      "inputs": [],
      "name": "getWaves",
      "outputs": [
        {
          "components": [
            {
              "internalType": "address",
              "name": "waver",
              "type": "address"
            },
            {
              "internalType": "uint256",
              "name": "timestamp",
              "type": "uint256"
            },
            {
              "internalType": "string",
              "name": "message",
              "type": "string"
            }
          ],
          "internalType": "struct WavePortal.Wave[]",
          "name": "",
          "type": "tuple[]"
        }
      ],
      "stateMutability": "view",
      "type": "function"
    },
    {
      "inputs": [
        {
          "internalType": "string",
          "name": "message",
          "type": "string"
        }
      ],
      "name": "wave",
      "outputs": [],
      "stateMutability": "nonpayable",
      "type": "function"
    }
  ],
  "bytecode": "0x60806040523480156200001157600080fd5b506200005d6040518060400160405280601d81526020017f4920616d20746865205761766520506f7274616c20636f6e74726163740000008152506200006360201b620004241760201c565b620001ed565b62000103816040516024016200007a9190620001c9565b6040516020818303038152906040527f41304fac000000000000000000000000000000000000000000000000000000007bffffffffffffffffffffffffffffffffffffffffffffffffffffffff19166020820180517bffffffffffffffffffffffffffffffffffffffffffffffffffffffff83818316178352505050506200010660201b60201c565b50565b60008151905060006a636f6e736f6c652e6c6f679050602083016000808483855afa5050505050565b600081519050919050565b600082825260208201905092915050565b60005b838110156200016b5780820151818401526020810190506200014e565b60008484015250505050565b6000601f19601f8301169050919050565b600062000195826200012f565b620001a181856200013a565b9350620001b38185602086016200014b565b620001be8162000177565b840191505092915050565b60006020820190508181036000830152620001e5818462000188565b905092915050565b610eee80620001fd6000396000f3fe608060405234801561001057600080fd5b506004361061004c5760003560e01c8063449d46c01461005157806373ebda771461006d5780639a2cdc081461009d578063a9d42f7e146100bb575b600080fd5b61006b60048036038101906100669190610778565b6100d9565b005b610087600480360381019061008291906107f7565b610249565b6040516100949190610865565b60405180910390f35b6100a5610288565b6040516100b2919061088f565b60405180910390f35b6100c36102d3565b6040516100d09190610a59565b60405180910390f35b60016000808282546100eb9190610aaa565b925050819055506101316040518060400160405280600c81526020017f2573206861732077617665640000000000000000000000000000000000000000815250336104bd565b600260405180606001604052803373ffffffffffffffffffffffffffffffffffffffff16815260200142815260200183815250908060018154018082558091505060019003906000526020600020906003020160009091909190915060008201518160000160006101000a81548173ffffffffffffffffffffffffffffffffffffffff021916908373ffffffffffffffffffffffffffffffffffffffff1602179055506020820151816001015560408201518160020190816101f39190610cea565b5050503373ffffffffffffffffffffffffffffffffffffffff167f5f7e16dc676677766a70e9c5628aa6c54ddb8b6e5188e2ae1e1f17f1ffbea716428360405161023e929190610e06565b60405180910390a250565b6001818154811061025957600080fd5b906000526020600020016000915054906101000a900473ffffffffffffffffffffffffffffffffffffffff1681565b60006102cb6040518060400160405280601e81526020017f57652068617665206265656e2077617665642061742025642074696d65730000815250600054610559565b600054905090565b60606002805480602002602001604051908101604052809291908181526020016000905b8282101561041b57838290600052602060002090600302016040518060600160405290816000820160009054906101000a900473ffffffffffffffffffffffffffffffffffffffff1673ffffffffffffffffffffffffffffffffffffffff1673ffffffffffffffffffffffffffffffffffffffff1681526020016001820154815260200160028201805461038a90610b0d565b80601f01602080910402602001604051908101604052809291908181526020018280546103b690610b0d565b80156104035780601f106103d857610100808354040283529160200191610403565b820191906000526020600020905b8154815290600101906020018083116103e657829003601f168201915b505050505081525050815260200190600101906102f7565b50505050905090565b6104ba816040516024016104389190610e36565b6040516020818303038152906040527f41304fac000000000000000000000000000000000000000000000000000000007bffffffffffffffffffffffffffffffffffffffffffffffffffffffff19166020820180517bffffffffffffffffffffffffffffffffffffffffffffffffffffffff83818316178352505050506105f5565b50565b61055582826040516024016104d3929190610e58565b6040516020818303038152906040527f319af333000000000000000000000000000000000000000000000000000000007bffffffffffffffffffffffffffffffffffffffffffffffffffffffff19166020820180517bffffffffffffffffffffffffffffffffffffffffffffffffffffffff83818316178352505050506105f5565b5050565b6105f1828260405160240161056f929190610e88565b6040516020818303038152906040527fb60e72cc000000000000000000000000000000000000000000000000000000007bffffffffffffffffffffffffffffffffffffffffffffffffffffffff19166020820180517bffffffffffffffffffffffffffffffffffffffffffffffffffffffff83818316178352505050506105f5565b5050565b60008151905060006a636f6e736f6c652e6c6f679050602083016000808483855afa5050505050565b6000604051905090565b600080fd5b600080fd5b600080fd5b600080fd5b6000601f19601f8301169050919050565b7f4e487b7100000000000000000000000000000000000000000000000000000000600052604160045260246000fd5b6106858261063c565b810181811067ffffffffffffffff821117156106a4576106a361064d565b5b80604052505050565b60006106b761061e565b90506106c3828261067c565b919050565b600067ffffffffffffffff8211156106e3576106e261064d565b5b6106ec8261063c565b9050602081019050919050565b82818337600083830152505050565b600061071b610716846106c8565b6106ad565b90508281526020810184848401111561073757610736610637565b5b6107428482856106f9565b509392505050565b600082601f83011261075f5761075e610632565b5b813561076f848260208601610708565b91505092915050565b60006020828403121561078e5761078d610628565b5b600082013567ffffffffffffffff8111156107ac576107ab61062d565b5b6107b88482850161074a565b91505092915050565b6000819050919050565b6107d4816107c1565b81146107df57600080fd5b50565b6000813590506107f1816107cb565b92915050565b60006020828403121561080d5761080c610628565b5b600061081b848285016107e2565b91505092915050565b600073ffffffffffffffffffffffffffffffffffffffff82169050919050565b600061084f82610824565b9050919050565b61085f81610844565b82525050565b600060208201905061087a6000830184610856565b92915050565b610889816107c1565b82525050565b60006020820190506108a46000830184610880565b92915050565b600081519050919050565b600082825260208201905092915050565b6000819050602082019050919050565b6108df81610844565b82525050565b6108ee816107c1565b82525050565b600081519050919050565b600082825260208201905092915050565b60005b8381101561092e578082015181840152602081019050610913565b60008484015250505050565b6000610945826108f4565b61094f81856108ff565b935061095f818560208601610910565b6109688161063c565b840191505092915050565b600060608301600083015161098b60008601826108d6565b50602083015161099e60208601826108e5565b50604083015184820360408601526109b6828261093a565b9150508091505092915050565b60006109cf8383610973565b905092915050565b6000602082019050919050565b60006109ef826108aa565b6109f981856108b5565b935083602082028501610a0b856108c6565b8060005b85811015610a475784840389528151610a2885826109c3565b9450610a33836109d7565b925060208a01995050600181019050610a0f565b50829750879550505050505092915050565b60006020820190508181036000830152610a7381846109e4565b905092915050565b7f4e487b7100000000000000000000000000000000000000000000000000000000600052601160045260246000fd5b6000610ab5826107c1565b9150610ac0836107c1565b9250828201905080821115610ad857610ad7610a7b565b5b92915050565b7f4e487b7100000000000000000000000000000000000000000000000000000000600052602260045260246000fd5b60006002820490506001821680610b2557607f821691505b602082108103610b3857610b37610ade565b5b50919050565b60008190508160005260206000209050919050565b60006020601f8301049050919050565b600082821b905092915050565b600060088302610ba07fffffffffffffffffffffffffffffffffffffffffffffffffffffffffffffffff82610b63565b610baa8683610b63565b95508019841693508086168417925050509392505050565b6000819050919050565b6000610be7610be2610bdd846107c1565b610bc2565b6107c1565b9050919050565b6000819050919050565b610c0183610bcc565b610c15610c0d82610bee565b848454610b70565b825550505050565b600090565b610c2a610c1d565b610c35818484610bf8565b505050565b5b81811015610c5957610c4e600082610c22565b600181019050610c3b565b5050565b601f821115610c9e57610c6f81610b3e565b610c7884610b53565b81016020851015610c87578190505b610c9b610c9385610b53565b830182610c3a565b50505b505050565b600082821c905092915050565b6000610cc160001984600802610ca3565b1980831691505092915050565b6000610cda8383610cb0565b9150826002028217905092915050565b610cf3826108f4565b67ffffffffffffffff811115610d0c57610d0b61064d565b5b610d168254610b0d565b610d21828285610c5d565b600060209050601f831160018114610d545760008415610d42578287015190505b610d4c8582610cce565b865550610db4565b601f198416610d6286610b3e565b60005b82811015610d8a57848901518255600182019150602085019450602081019050610d65565b86831015610da75784890151610da3601f891682610cb0565b8355505b6001600288020188555050505b505050505050565b600082825260208201905092915050565b6000610dd8826108f4565b610de28185610dbc565b9350610df2818560208601610910565b610dfb8161063c565b840191505092915050565b6000604082019050610e1b6000830185610880565b8181036020830152610e2d8184610dcd565b90509392505050565b60006020820190508181036000830152610e508184610dcd565b905092915050565b60006040820190508181036000830152610e728185610dcd565b9050610e816020830184610856565b9392505050565b60006040820190508181036000830152610ea28185610dcd565b9050610eb16020830184610880565b939250505056fea264697066735822122095fa5d8cafc7358f50a59e8e92b7aa7e742f91d3081cca36a3a56b4036b9ba1764736f6c63430008110033",
  "linkReferences": {},
  "deployedLinkReferences": {}
}